:100000000C9461000C947E000C947E000C947E0095
:100010000C947E000C947E000C947E000C947E0068
:100020000C947E000C947E000C947E000C947E0058
:100030000C947E000C947E000C947E000C947E0048
:100040000C94DB010C947E000C947E000C947E00DA
:100050000C947E000C947E000C947E000C947E0028
:100060000C947E000C947E00000000002400270009
:100070002A0000000000250028002B0000000000DE
:1000800023002600290004040404040404040202DA
:100090000202020203030303030301020408102007
:1000A0004080010204081020010204081020000012
:1000B0000008000201000003040700000000000027
:1000C000000011241FBECFEFD8E0DEBFCDBF11E08E
:1000D000A0E0B1E0E6E5F7E002C005900D92A430A3
:1000E000B107D9F721E0A4E0B1E001C01D92A03131
:1000F000B207E1F70E9425020C94A9030C940000BA
:10010000833081F028F4813099F08230A9F008958D
:100110008730A9F08830C9F08430B1F48091800034
:100120008F7D03C0809180008F7780938000089539
:1001300084B58F7784BD089584B58F7DFBCF809182
:10014000B0008F778093B00008958091B0008F7DCC
:10015000F9CFCF93DF93282F30E0F901E255FF4F1D
:100160008491F901E656FF4FD491F901EA57FF4F08
:10017000C491CC23A1F081110E948000EC2FF0E00B
:10018000EE0FFF1FE458FF4FA591B491EC91ED23C2
:1001900081E090E009F480E0DF91CF91089580E064
:1001A00090E0FACF1F93CF93DF93282F30E0F9012F
:1001B000E255FF4F8491F901E656FF4FD491F901C2
:1001C000EA57FF4FC491CC23A9F0162F81110E944A
:1001D0008000EC2FF0E0EE0FFF1FEE58FF4FA591CF
:1001E000B4918FB7F894EC91111108C0D095DE232B
:1001F000DC938FBFDF91CF911F910895DE2BF8CF55
:10020000CF93DF9390E0FC01E656FF4F24918A578D
:100210009F4FFC0184918823C9F090E0880F991FBB
:10022000FC01E859FF4FA591B491FC01EE58FF4F36
:10023000C591D49161110DC09FB7F8948C91209510
:1002400082238C938881282328839FBFDF91CF91BD
:100250000895623051F49FB7F8943C91822F8095B5
:1002600083238C93E8812E2BEFCF8FB7F894EC91FA
:100270002E2B2C938FBFEACF3FB7F89480910901C2
:1002800090910A01A0910B01B0910C0126B5A89B99
:1002900005C02F3F19F00196A11DB11D3FBFBA2F18
:1002A000A92F982F8827BC01CD01620F711D811DD8
:1002B000911D42E0660F771F881F991F4A95D1F75D
:1002C00008958F929F92AF92BF92CF92DF92EF925A
:1002D000FF924B015C010E943C016B017C010E947A
:1002E0003C016C197D098E099F09683E73408105A8
:1002F0009105A8F321E0821A9108A108B10888EEBF
:10030000C80E83E0D81EE11CF11C81149104A104E5
:10031000B10429F7FF90EF90DF90CF90BF90AF909E
:100320009F908F9008950F931F93CF93DF938C012D
:10033000D0E0C0E061E086E00E94D20064EF71E0AE
:1003400080E090E00E94610160E086E00E94D200BF
:1003500064EF71E080E090E00E94610121960C174B
:100360001D0741F7DF91CF911F910F910895CF9312
:10037000DF93EC0190E080E08C179D07BCF461E016
:1003800085E00E94D20064EF71E080E090E00E947E
:10039000610160E085E00E94D20064EF71E080E0DE
:1003A00090E00E94610181E090E0E6CFDF91CF9183
:1003B00008950C949B031F920F920FB60F92112475
:1003C0002F933F938F939F93AF93BF93809105019A
:1003D00090910601A0910701B091080130910401AC
:1003E00023E0230F2D3758F50196A11DB11D209351
:1003F00004018093050190930601A0930701B09337
:1004000008018091090190910A01A0910B01B0911E
:100410000C010196A11DB11D8093090190930A0161
:10042000A0930B01B0930C01BF91AF919F918F915D
:100430003F912F910F900FBE0F901F90189526E8B7
:10044000230F0296A11DB11DD2CF789484B582608E
:1004500084BD84B5816084BD85B5826085BD85B568
:10046000816085BD80916E00816080936E001092E6
:100470008100809181008260809381008091810061
:1004800081608093810080918000816080938000F2
:100490008091B10084608093B1008091B000816050
:1004A0008093B00080917A00846080937A0080917C
:1004B0007A00826080937A0080917A0081608093D4
:1004C0007A0080917A00806880937A001092C1004F
:1004D00062E083E00E94000162E084E00E9400018B
:1004E00061E085E00E94000161E086E00E94000179
:1004F00060E087E00E94000161E088E00E94000166
:1005000060E089E00E94000161E08AE00E94000151
:1005100081E090E00E949303C82F813061F162E096
:1005200090E080E00E94D90161E082E090E00E94CA
:10053000D90160E083E090E00E94D90161E081E0B0
:1005400090E00E94D90182E080930F0181E08093C6
:100550000E0110920D0160EA7FE080E090E00E94C1
:10056000610180910F018330E0F4813008F4D4C040
:1005700081E090E0D3C090E080E00E9493038093FC
:100580000F0183E090E00E9493038111C0930D015D
:1005900082E090E00E9493038111DDCF10920E0162
:1005A000DACF833009F4B0C0843009F4B2C080914E
:1005B0000D01882371F061E08AE00E94D2006AEFA9
:1005C00070E080E090E00E94610160E08AE00E94BB
:1005D000D20080910E0181110EC061E088E00E947E
:1005E000D2006AEF70E080E090E00E94610160E07C
:1005F00088E00E94D20001E0C0E0D0E011E084E099
:100600000E94A900892B59F483E00E94A900892B3C
:1006100031F480910201811102C01093020187E040
:100620000E94A900019731F480910101811102C05B
:100630001093010189E00E94A900892B31F4809177
:100640000001811102C01093000184E00E94A90002
:100650000197A1F480910201882381F080910F011C
:10066000843008F45EC084E080930F0160910F0134
:1006700090E080E00E94D9011092020183E00E9484
:10068000A900019799F480910201882379F0809163
:100690000F01882319F0815080930F0160910F01A1
:1006A00090E080E00E94D9011092020187E00E9450
:1006B000A900892B79F480910101882359F0609178
:1006C0000E01602760930E0182E090E00E94D90144
:1006D0001092010189E00E94A900019779F48091AC
:1006E0000001882359F060910D01602760930D018E
:1006F00083E090E00E94D90110920001209709F454
:100700007ECF0E9400007BCF90E080E00E94B70186
:100710004ECF81E090E0FACF83E090E00E94930119
:1007200046CF8F5FA1CFF999FECF92BD81BDF89AD8
:10073000992780B50895262FF999FECF1FBA92BD4B
:1007400081BD20BD0FB6F894FA9AF99A0FBE0196B2
:060750000895F894FFCFAC
:04075600010101009C
:00000001FF
